:030000000200A05B
:10007B000201A100000080FB1200A9B900030200DD
:10008B009AE479107802B800028004F709D8FC12C0
:10009B0001EE12007E75D0007581BF0200837901DD
:1000AB0022C8C0E0E9C0E0A9811919E583C7F5832F
:1000BB0019E582C7F582EAC0E0EBC0E0ECC0E0EDE9
:1000CB00C0E0EEC0E0EFC0E0C0D0C0F0C0207908C7
:1000DB00E709C0E0D8FAE47374072FF8D0E0F618FC
:1000EB00DFFAD020D0F0D0D0D0E0FFD0E0FED0E0CF
:1000FB00FDD0E0FCD0E0FBD0E0FAD0E0F9D0E0F8A6
:10010B00D083D082D0E032D083D082E9C0E0E493B8
:10011B00A3C386F0C5F095F0F908E493A386F0C568
:10012B00F095F0700BE493A3C3994005E9048002AA
:10013B00A3E475F002A42582F582E5F03583F583FF
:10014B00D0E0F9E493A3C0E0E493C0E0227C007D0F
:10015B00008019E82401F8E93400F9C3E89440E978
:10016B00940640EFEC2401FCED3400FDC3EC9AED5A
:10017B009B50067800790080E22243F604438D04FD
:10018B00438C01D2AF439A10858A8A2243FE03E542
:10019B00FEC290C29122C0E074011200ACA2924048
:1001AB00167A0A7B00120158A292400BA29250FCC5
:1001BB007A057B00120158758A00C2EB7810C3E6F2
:1001CB00940408E6940040097810760108760080C4
:1001DB000B7810E62401F608E63400F6C2EB7F013B
:1001EB000200E31201971201857810860808860930
:1001FB007808120112010003F4010D021302200210
:10020B002602D291C29080E1B291B2907A647B00C7
:10021B0012015880D4D291D29080CEC290C29180DC
:01022B00C80A
:0000A0015F
:00000001FF
