:020000040000FA
:1000000002002700000080FB120051B9000302002B
:10001000117582FB758300740012003375820375BD
:100020008300740012003375D0007581BF759F0086
:10003000020008C09FF59FE473D09F22D083D08236
:10004000C09FE493C0E0740193C0E0740293F59FF5
:100050002279012212003C66000012003CD200000E
:1000600012003CDE0000780079008008E82401F8E6
:10007000E93400F9C3E89AE99B40F17800790080FF
:1000800008E82401F8E93400F9C3E89AE99B40F153
:10009000780079008008E82401F8E93400F9C3E821
:1000A0009AE99B40F1780079008008E82401F8E99A
:1000B0003400F9C3E89AE99B40F1780079008008A0
:1000C000E82401F8E93400F9C3E89AE99B40F10219
:1000D000003943FE03E5FED290D291020039C0827E
:1000E000C083B2917A107B27120054B2907A107BB1
:1000F00027120054D083D08202003912005A120015
:030100006080FB21
:0400000500000027D0
:00000001FF
